:020000003128A5
:10000800FF00030E8301A6000A08A5008A017B08E9
:10001800A2007C08A1007D08A0008B138B1C23285C
:1000280007101A30FB005E30FC006E30FD00FD0B3F
:100038001B28FC0B1B28FB0B1B2800008B108B17A5
:100048002208FB002108FC002008FD0025088A0082
:0A005800260E8300FF0E7F0E090044
:100062008B170B170B16831603138701FF308312AE
:1000720087000D30FB00AF30FC00B630FD00FD0BF9
:100082004028FC0B4028FB0B4028000087010D3064
:10009200FB00AF30FC00B630FD00FD0B4E28FC0B20
:0C00A2004E28FB0B4E2800003728562883
:02400E004A2F37
:00000001FF
