:0200000039289D
:10000800FF00030E8301A4000A08A5008A018B13D0
:100018000B1D1E2800302106031D1428323020062F
:10002800031D1A288709A001A1011D28A00A031988
:10003800A10A0B118B1725088A00240E8300FF0ED6
:040048007F0E09001E
:0E004C008312031323088A0022088200080092
:10005A0026208A110A128000840AA20A0319A30A16
:08006A00F003031D2D2808001E
:1000720083120313A001A1018B170B178B16831692
:1000820087018112811101158114011483128701E4
:020092004928FB
:02400E004A2F37
:00000001FF
