:020000005A287C
:10000800FF00030E8301A4000A08A5008A018B13D0
:100018008B1C2028071087141A30FB005E30FC0068
:100028006E30FD00FD0B1628FC0B1628FB0B16285E
:10003800000087108B1033280B1D33280030210651
:10004800031D28280A302006031D2F2801308706A3
:10005800A001A1013228A00A0319A10A0B118B17CC
:0E00680025088A00240E8300FF0E7F0E09007B
:0E0076008312031323088A0022088200080068
:100084003B208A110A128000840AA20A0319A30AD7
:08009400F003031D42280800DF
:10009C008B170B178B160B168316031381128111FA
:0800AC00011581140114080084
:1000B40083120313A001A1014E208701831287013B
:0200C4006228B0
:02400E004A2F37
:00000001FF
